{
    "_format": "hh-sol-artifact-1",
    "contractName": "DemoNFT",
    "sourceName": "contracts/MyEpicNFT.sol",
    "abi": [
        {
            "inputs": [],
            "stateMutability": "nonpayable",
            "type": "constructor"
        },
        {
            "anonymous": false,
            "inputs": [
                {
                    "indexed": true,
                    "internalType": "address",
                    "name": "owner",
                    "type": "address"
                },
                {
                    "indexed": true,
                    "internalType": "address",
                    "name": "approved",
                    "type": "address"
                },
                {
                    "indexed": true,
                    "internalType": "uint256",
                    "name": "tokenId",
                    "type": "uint256"
                }
            ],
            "name": "Approval",
            "type": "event"
        },
        {
            "anonymous": false,
            "inputs": [
                {
                    "indexed": true,
                    "internalType": "address",
                    "name": "owner",
                    "type": "address"
                },
                {
                    "indexed": true,
                    "internalType": "address",
                    "name": "operator",
                    "type": "address"
                },
                {
                    "indexed": false,
                    "internalType": "bool",
                    "name": "approved",
                    "type": "bool"
                }
            ],
            "name": "ApprovalForAll",
            "type": "event"
        },
        {
            "anonymous": false,
            "inputs": [
                {
                    "indexed": true,
                    "internalType": "address",
                    "name": "from",
                    "type": "address"
                },
                {
                    "indexed": true,
                    "internalType": "address",
                    "name": "to",
                    "type": "address"
                },
                {
                    "indexed": true,
                    "internalType": "uint256",
                    "name": "tokenId",
                    "type": "uint256"
                }
            ],
            "name": "Transfer",
            "type": "event"
        },
        {
            "inputs": [
                {
                    "internalType": "address",
                    "name": "to",
                    "type": "address"
                },
                {
                    "internalType": "uint256",
                    "name": "tokenId",
                    "type": "uint256"
                }
            ],
            "name": "approve",
            "outputs": [],
            "stateMutability": "nonpayable",
            "type": "function"
        },
        {
            "inputs": [
                {
                    "internalType": "address",
                    "name": "owner",
                    "type": "address"
                }
            ],
            "name": "balanceOf",
            "outputs": [
                {
                    "internalType": "uint256",
                    "name": "",
                    "type": "uint256"
                }
            ],
            "stateMutability": "view",
            "type": "function"
        },
        {
            "inputs": [
                {
                    "internalType": "uint256",
                    "name": "tokenId",
                    "type": "uint256"
                }
            ],
            "name": "getApproved",
            "outputs": [
                {
                    "internalType": "address",
                    "name": "",
                    "type": "address"
                }
            ],
            "stateMutability": "view",
            "type": "function"
        },
        {
            "inputs": [
                {
                    "internalType": "address",
                    "name": "owner",
                    "type": "address"
                },
                {
                    "internalType": "address",
                    "name": "operator",
                    "type": "address"
                }
            ],
            "name": "isApprovedForAll",
            "outputs": [
                {
                    "internalType": "bool",
                    "name": "",
                    "type": "bool"
                }
            ],
            "stateMutability": "view",
            "type": "function"
        },
        {
            "inputs": [],
            "name": "makeNFT",
            "outputs": [],
            "stateMutability": "nonpayable",
            "type": "function"
        },
        {
            "inputs": [],
            "name": "name",
            "outputs": [
                {
                    "internalType": "string",
                    "name": "",
                    "type": "string"
                }
            ],
            "stateMutability": "view",
            "type": "function"
        },
        {
            "inputs": [
                {
                    "internalType": "uint256",
                    "name": "tokenId",
                    "type": "uint256"
                }
            ],
            "name": "ownerOf",
            "outputs": [
                {
                    "internalType": "address",
                    "name": "",
                    "type": "address"
                }
            ],
            "stateMutability": "view",
            "type": "function"
        },
        {
            "inputs": [
                {
                    "internalType": "address",
                    "name": "from",
                    "type": "address"
                },
                {
                    "internalType": "address",
                    "name": "to",
                    "type": "address"
                },
                {
                    "internalType": "uint256",
                    "name": "tokenId",
                    "type": "uint256"
                }
            ],
            "name": "safeTransferFrom",
            "outputs": [],
            "stateMutability": "nonpayable",
            "type": "function"
        },
        {
            "inputs": [
                {
                    "internalType": "address",
                    "name": "from",
                    "type": "address"
                },
                {
                    "internalType": "address",
                    "name": "to",
                    "type": "address"
                },
                {
                    "internalType": "uint256",
                    "name": "tokenId",
                    "type": "uint256"
                },
                {
                    "internalType": "bytes",
                    "name": "_data",
                    "type": "bytes"
                }
            ],
            "name": "safeTransferFrom",
            "outputs": [],
            "stateMutability": "nonpayable",
            "type": "function"
        },
        {
            "inputs": [
                {
                    "internalType": "address",
                    "name": "operator",
                    "type": "address"
                },
                {
                    "internalType": "bool",
                    "name": "approved",
                    "type": "bool"
                }
            ],
            "name": "setApprovalForAll",
            "outputs": [],
            "stateMutability": "nonpayable",
            "type": "function"
        },
        {
            "inputs": [
                {
                    "internalType": "bytes4",
                    "name": "interfaceId",
                    "type": "bytes4"
                }
            ],
            "name": "supportsInterface",
            "outputs": [
                {
                    "internalType": "bool",
                    "name": "",
                    "type": "bool"
                }
            ],
            "stateMutability": "view",
            "type": "function"
        },
        {
            "inputs": [],
            "name": "symbol",
            "outputs": [
                {
                    "internalType": "string",
                    "name": "",
                    "type": "string"
                }
            ],
            "stateMutability": "view",
            "type": "function"
        },
        {
            "inputs": [
                {
                    "internalType": "uint256",
                    "name": "tokenId",
                    "type": "uint256"
                }
            ],
            "name": "tokenURI",
            "outputs": [
                {
                    "internalType": "string",
                    "name": "",
                    "type": "string"
                }
            ],
            "stateMutability": "view",
            "type": "function"
        },
        {
            "inputs": [
                {
                    "internalType": "address",
                    "name": "from",
                    "type": "address"
                },
                {
                    "internalType": "address",
                    "name": "to",
                    "type": "address"
                },
                {
                    "internalType": "uint256",
                    "name": "tokenId",
                    "type": "uint256"
                }
            ],
            "name": "transferFrom",
            "outputs": [],
            "stateMutability": "nonpayable",
            "type": "function"
        }
    ],
    "bytecode": "0x60806040523480156200001157600080fd5b506040518060400160405280600a81526020017f64656d6f4e4654313233000000000000000000000000000000000000000000008152506040518060400160405280600f81526020017f64656d6f6b656b77313233353631370000000000000000000000000000000000815250816000908051906020019062000096929190620001cf565b508060019080519060200190620000af929190620001cf565b505050620000fd6040518060400160405280601e81526020017f54686973206973206d79204e465420636f6e74726163742e20576f61682100008152506200010360201b62000b391760201c565b620003ac565b620001a3816040516024016200011a9190620002c0565b6040516020818303038152906040527f41304fac000000000000000000000000000000000000000000000000000000007bffffffffffffffffffffffffffffffffffffffffffffffffffffffff19166020820180517bffffffffffffffffffffffffffffffffffffffffffffffffffffffff8381831617835250505050620001a660201b60201c565b50565b60008151905060006a636f6e736f6c652e6c6f679050602083016000808483855afa5050505050565b828054620001dd9062000336565b90600052602060002090601f0160209004810192826200020157600085556200024d565b82601f106200021c57805160ff19168380011785556200024d565b828001600101855582156200024d579182015b828111156200024c5782518255916020019190600101906200022f565b5b5090506200025c919062000260565b5090565b5b808211156200027b57600081600090555060010162000261565b5090565b60006200028c82620002e4565b620002988185620002ef565b9350620002aa81856020860162000300565b620002b5816200039b565b840191505092915050565b60006020820190508181036000830152620002dc81846200027f565b905092915050565b600081519050919050565b600082825260208201905092915050565b60005b838110156200032057808201518184015260208101905062000303565b8381111562000330576000848401525b50505050565b600060028204905060018216806200034f57607f821691505b602082108114156200036657620003656200036c565b5b50919050565b7f4e487b7100000000000000000000000000000000000000000000000000000000600052602260045260246000fd5b6000601f19601f8301169050919050565b612f4480620003bc6000396000f3fe608060405234801561001057600080fd5b50600436106100ea5760003560e01c806370a082311161008c578063b036b4bd11610066578063b036b4bd1461025b578063b88d4fde14610265578063c87b56dd14610281578063e985e9c5146102b1576100ea565b806370a08231146101f157806395d89b4114610221578063a22cb4651461023f576100ea565b8063095ea7b3116100c8578063095ea7b31461016d57806323b872dd1461018957806342842e0e146101a55780636352211e146101c1576100ea565b806301ffc9a7146100ef57806306fdde031461011f578063081812fc1461013d575b600080fd5b61010960048036038101906101049190611d48565b6102e1565b604051610116919061250c565b60405180910390f35b6101276103c3565b6040516101349190612527565b60405180910390f35b61015760048036038101906101529190611d9a565b610455565b60405161016491906124a5565b60405180910390f35b61018760048036038101906101829190611d0c565b6104da565b005b6101a3600480360381019061019e9190611c06565b6105f2565b005b6101bf60048036038101906101ba9190611c06565b610652565b005b6101db60048036038101906101d69190611d9a565b610672565b6040516101e891906124a5565b60405180910390f35b61020b60048036038101906102069190611ba1565b610724565b6040516102189190612787565b60405180910390f35b6102296107dc565b6040516102369190612527565b60405180910390f35b61025960048036038101906102549190611cd0565b61086e565b005b610263610884565b005b61027f600480360381019061027a9190611c55565b6108f1565b005b61029b60048036038101906102969190611d9a565b610953565b6040516102a89190612527565b60405180910390f35b6102cb60048036038101906102c69190611bca565b610aa5565b6040516102d8919061250c565b60405180910390f35b60007f80ac58cd000000000000000000000000000000000000000000000000000000007bffffffffffffffffffffffffffffffffffffffffffffffffffffffff1916827bffffffffffffffffffffffffffffffffffffffffffffffffffffffff191614806103ac57507f5b5e139f000000000000000000000000000000000000000000000000000000007bffffffffffffffffffffffffffffffffffffffffffffffffffffffff1916827bffffffffffffffffffffffffffffffffffffffffffffffffffffffff1916145b806103bc57506103bb82610bd2565b5b9050919050565b6060600080546103d2906129b7565b80601f01602080910402602001604051908101604052809291908181526020018280546103fe906129b7565b801561044b5780601f106104205761010080835404028352916020019161044b565b820191906000526020600020905b81548152906001019060200180831161042e57829003601f168201915b5050505050905090565b600061046082610c3c565b61049f576040517f08c379a0000000000000000000000000000000000000000000000000000000008152600401610496906126e7565b60405180910390fd5b6004600083815260200190815260200160002060009054906101000a900473ffffffffffffffffffffffffffffffffffffffff169050919050565b60006104e582610672565b90508073ffffffffffffffffffffffffffffffffffffffff168373ffffffffffffffffffffffffffffffffffffffff161415610556576040517f08c379a000000000000000000000000000000000000000000000000000000000815260040161054d90612747565b60405180910390fd5b8073ffffffffffffffffffffffffffffffffffffffff16610575610ca8565b73ffffffffffffffffffffffffffffffffffffffff1614806105a457506105a38161059e610ca8565b610aa5565b5b6105e3576040517f08c379a00000000000000000000000000000000000000000000000000000000081526004016105da90612627565b60405180910390fd5b6105ed8383610cb0565b505050565b6106036105fd610ca8565b82610d69565b610642576040517f08c379a000000000000000000000000000000000000000000000000000000000815260040161063990612767565b60405180910390fd5b61064d838383610e47565b505050565b61066d838383604051806020016040528060008152506108f1565b505050565b6000806002600084815260200190815260200160002060009054906101000a900473ffffffffffffffffffffffffffffffffffffffff169050600073ffffffffffffffffffffffffffffffffffffffff168173ffffffffffffffffffffffffffffffffffffffff16141561071b576040517f08c379a000000000000000000000000000000000000000000000000000000000815260040161071290612667565b60405180910390fd5b80915050919050565b60008073ffffffffffffffffffffffffffffffffffffffff168273ffffffffffffffffffffffffffffffffffffffff161415610795576040517f08c379a000000000000000000000000000000000000000000000000000000000815260040161078c90612647565b60405180910390fd5b600360008373ffffffffffffffffffffffffffffffffffffffff1673ffffffffffffffffffffffffffffffffffffffff168152602001908152602001600020549050919050565b6060600180546107eb906129b7565b80601f0160208091040260200160405190810160405280929190818152602001828054610817906129b7565b80156108645780601f1061083957610100808354040283529160200191610864565b820191906000526020600020905b81548152906001019060200180831161084757829003601f168201915b5050505050905090565b610880610879610ca8565b83836110a3565b5050565b60006108906007611210565b905061089c338261121e565b6108c18160405180610380016040528061035d8152602001612bb261035d913961123c565b6108e4604051806060016040528060258152602001612b8d6025913982336112b0565b6108ee600761134f565b50565b6109026108fc610ca8565b83610d69565b610941576040517f08c379a000000000000000000000000000000000000000000000000000000000815260040161093890612767565b60405180910390fd5b61094d84848484611365565b50505050565b606061095e82610c3c565b61099d576040517f08c379a0000000000000000000000000000000000000000000000000000000008152600401610994906126c7565b60405180910390fd5b60006006600084815260200190815260200160002080546109bd906129b7565b80601f01602080910402602001604051908101604052809291908181526020018280546109e9906129b7565b8015610a365780601f10610a0b57610100808354040283529160200191610a36565b820191906000526020600020905b815481529060010190602001808311610a1957829003601f168201915b505050505090506000610a476113c1565b9050600081511415610a5d578192505050610aa0565b600082511115610a92578082604051602001610a7a929190612481565b60405160208183030381529060405292505050610aa0565b610a9b846113d8565b925050505b919050565b6000600560008473ffffffffffffffffffffffffffffffffffffffff1673ffffffffffffffffffffffffffffffffffffffff16815260200190815260200160002060008373ffffffffffffffffffffffffffffffffffffffff1673ffffffffffffffffffffffffffffffffffffffff16815260200190815260200160002060009054906101000a900460ff16905092915050565b610bcf81604051602401610b4d9190612527565b6040516020818303038152906040527f41304fac000000000000000000000000000000000000000000000000000000007bffffffffffffffffffffffffffffffffffffffffffffffffffffffff19166020820180517bffffffffffffffffffffffffffffffffffffffffffffffffffffffff838183161783525050505061147f565b50565b60007f01ffc9a7000000000000000000000000000000000000000000000000000000007bffffffffffffffffffffffffffffffffffffffffffffffffffffffff1916827bffffffffffffffffffffffffffffffffffffffffffffffffffffffff1916149050919050565b60008073ffffffffffffffffffffffffffffffffffffffff166002600084815260200190815260200160002060009054906101000a900473ffffffffffffffffffffffffffffffffffffffff1673ffffffffffffffffffffffffffffffffffffffff1614159050919050565b600033905090565b816004600083815260200190815260200160002060006101000a81548173ffffffffffffffffffffffffffffffffffffffff021916908373ffffffffffffffffffffffffffffffffffffffff160217905550808273ffffffffffffffffffffffffffffffffffffffff16610d2383610672565b73ffffffffffffffffffffffffffffffffffffffff167f8c5be1e5ebec7d5bd14f71427d1e84f3dd0314c0f7b2291e5b200ac8c7c3b92560405160405180910390a45050565b6000610d7482610c3c565b610db3576040517f08c379a0000000000000000000000000000000000000000000000000000000008152600401610daa90612607565b60405180910390fd5b6000610dbe83610672565b90508073ffffffffffffffffffffffffffffffffffffffff168473ffffffffffffffffffffffffffffffffffffffff161480610e2d57508373ffffffffffffffffffffffffffffffffffffffff16610e1584610455565b73ffffffffffffffffffffffffffffffffffffffff16145b80610e3e5750610e3d8185610aa5565b5b91505092915050565b8273ffffffffffffffffffffffffffffffffffffffff16610e6782610672565b73ffffffffffffffffffffffffffffffffffffffff1614610ebd576040517f08c379a0000000000000000000000000000000000000000000000000000000008152600401610eb490612707565b60405180910390fd5b600073ffffffffffffffffffffffffffffffffffffffff168273ffffffffffffffffffffffffffffffffffffffff161415610f2d576040517f08c379a0000000000000000000000000000000000000000000000000000000008152600401610f24906125c7565b60405180910390fd5b610f388383836114a8565b610f43600082610cb0565b6001600360008573ffffffffffffffffffffffffffffffffffffffff1673ffffffffffffffffffffffffffffffffffffffff1681526020019081526020016000206000828254610f9391906128cd565b925050819055506001600360008473ffffffffffffffffffffffffffffffffffffffff1673ffffffffffffffffffffffffffffffffffffffff1681526020019081526020016000206000828254610fea9190612846565b92505081905550816002600083815260200190815260200160002060006101000a81548173ffffffffffffffffffffffffffffffffffffffff021916908373ffffffffffffffffffffffffffffffffffffffff160217905550808273ffffffffffffffffffffffffffffffffffffffff168473ffffffffffffffffffffffffffffffffffffffff167fddf252ad1be2c89b69c2b068fc378daa952ba7f163c4a11628f55a4df523b3ef60405160405180910390a4505050565b8173ffffffffffffffffffffffffffffffffffffffff168373ffffffffffffffffffffffffffffffffffffffff161415611112576040517f08c379a0000000000000000000000000000000000000000000000000000000008152600401611109906125e7565b60405180910390fd5b80600560008573ffffffffffffffffffffffffffffffffffffffff1673ffffffffffffffffffffffffffffffffffffffff16815260200190815260200160002060008473ffffffffffffffffffffffffffffffffffffffff1673ffffffffffffffffffffffffffffffffffffffff16815260200190815260200160002060006101000a81548160ff0219169083151502179055508173ffffffffffffffffffffffffffffffffffffffff168373ffffffffffffffffffffffffffffffffffffffff167f17307eab39ab6107e8899845ad3d59bd9653f200f220920489ca2b5937696c3183604051611203919061250c565b60405180910390a3505050565b600081600001549050919050565b6112388282604051806020016040528060008152506114ad565b5050565b61124582610c3c565b611284576040517f08c379a000000000000000000000000000000000000000000000000000000000815260040161127b90612687565b60405180910390fd5b806006600084815260200190815260200160002090805190602001906112ab929190611a2d565b505050565b61134a8383836040516024016112c893929190612549565b6040516020818303038152906040527fe3849f79000000000000000000000000000000000000000000000000000000007bffffffffffffffffffffffffffffffffffffffffffffffffffffffff19166020820180517bffffffffffffffffffffffffffffffffffffffffffffffffffffffff838183161783525050505061147f565b505050565b6001816000016000828254019250508190555050565b611370848484610e47565b61137c84848484611508565b6113bb576040517f08c379a00000000000000000000000000000000000000000000000000000000081526004016113b290612587565b60405180910390fd5b50505050565b606060405180602001604052806000815250905090565b60606113e382610c3c565b611422576040517f08c379a000000000000000000000000000000000000000000000000000000000815260040161141990612727565b60405180910390fd5b600061142c6113c1565b9050600081511161144c5760405180602001604052806000815250611477565b806114568461169f565b604051602001611467929190612481565b6040516020818303038152906040525b915050919050565b60008151905060006a636f6e736f6c652e6c6f679050602083016000808483855afa5050505050565b505050565b6114b7838361184c565b6114c46000848484611508565b611503576040517f08c379a00000000000000000000000000000000000000000000000000000000081526004016114fa90612587565b60405180910390fd5b505050565b60006115298473ffffffffffffffffffffffffffffffffffffffff16611a1a565b15611692578373ffffffffffffffffffffffffffffffffffffffff1663150b7a02611552610ca8565b8786866040518563ffffffff1660e01b815260040161157494939291906124c0565b602060405180830381600087803b15801561158e57600080fd5b505af19250505080156115bf57506040513d601f19601f820116820180604052508101906115bc9190611d71565b60015b611642573d80600081146115ef576040519150601f19603f3d011682016040523d82523d6000602084013e6115f4565b606091505b5060008151141561163a576040517f08c379a000000000000000000000000000000000000000000000000000000000815260040161163190612587565b60405180910390fd5b805181602001fd5b63150b7a0260e01b7bffffffffffffffffffffffffffffffffffffffffffffffffffffffff1916817bffffffffffffffffffffffffffffffffffffffffffffffffffffffff191614915050611697565b600190505b949350505050565b606060008214156116e7576040518060400160405280600181526020017f30000000000000000000000000000000000000000000000000000000000000008152509050611847565b600082905060005b60008214611719578080611702906129e9565b915050600a82611712919061289c565b91506116ef565b60008167ffffffffffffffff81111561175b577f4e487b7100000000000000000000000000000000000000000000000000000000600052604160045260246000fd5b6040519080825280601f01601f19166020018201604052801561178d5781602001600182028036833780820191505090505b5090505b60008514611840576001826117a691906128cd565b9150600a856117b59190612a32565b60306117c19190612846565b60f81b8183815181106117fd577f4e487b7100000000000000000000000000000000000000000000000000000000600052603260045260246000fd5b60200101907effffffffffffffffffffffffffffffffffffffffffffffffffffffffffffff1916908160001a905350600a85611839919061289c565b9450611791565b8093505050505b919050565b600073ffffffffffffffffffffffffffffffffffffffff168273ffffffffffffffffffffffffffffffffffffffff1614156118bc576040517f08c379a00000000000000000000000000000000000000000000000000000000081526004016118b3906126a7565b60405180910390fd5b6118c581610c3c565b15611905576040517f08c379a00000000000000000000000000000000000000000000000000000000081526004016118fc906125a7565b60405180910390fd5b611911600083836114a8565b6001600360008473ffffffffffffffffffffffffffffffffffffffff1673ffffffffffffffffffffffffffffffffffffffff16815260200190815260200160002060008282546119619190612846565b92505081905550816002600083815260200190815260200160002060006101000a81548173ffffffffffffffffffffffffffffffffffffffff021916908373ffffffffffffffffffffffffffffffffffffffff160217905550808273ffffffffffffffffffffffffffffffffffffffff16600073ffffffffffffffffffffffffffffffffffffffff167fddf252ad1be2c89b69c2b068fc378daa952ba7f163c4a11628f55a4df523b3ef60405160405180910390a45050565b600080823b905060008111915050919050565b828054611a39906129b7565b90600052602060002090601f016020900481019282611a5b5760008555611aa2565b82601f10611a7457805160ff1916838001178555611aa2565b82800160010185558215611aa2579182015b82811115611aa1578251825591602001919060010190611a86565b5b509050611aaf9190611ab3565b5090565b5b80821115611acc576000816000905550600101611ab4565b5090565b6000611ae3611ade846127d3565b6127a2565b905082815260208101848484011115611afb57600080fd5b611b06848285612975565b509392505050565b600081359050611b1d81612b30565b92915050565b600081359050611b3281612b47565b92915050565b600081359050611b4781612b5e565b92915050565b600081519050611b5c81612b5e565b92915050565b600082601f830112611b7357600080fd5b8135611b83848260208601611ad0565b91505092915050565b600081359050611b9b81612b75565b92915050565b600060208284031215611bb357600080fd5b6000611bc184828501611b0e565b91505092915050565b60008060408385031215611bdd57600080fd5b6000611beb85828601611b0e565b9250506020611bfc85828601611b0e565b9150509250929050565b600080600060608486031215611c1b57600080fd5b6000611c2986828701611b0e565b9350506020611c3a86828701611b0e565b9250506040611c4b86828701611b8c565b9150509250925092565b60008060008060808587031215611c6b57600080fd5b6000611c7987828801611b0e565b9450506020611c8a87828801611b0e565b9350506040611c9b87828801611b8c565b925050606085013567ffffffffffffffff811115611cb857600080fd5b611cc487828801611b62565b91505092959194509250565b60008060408385031215611ce357600080fd5b6000611cf185828601611b0e565b9250506020611d0285828601611b23565b9150509250929050565b60008060408385031215611d1f57600080fd5b6000611d2d85828601611b0e565b9250506020611d3e85828601611b8c565b9150509250929050565b600060208284031215611d5a57600080fd5b6000611d6884828501611b38565b91505092915050565b600060208284031215611d8357600080fd5b6000611d9184828501611b4d565b91505092915050565b600060208284031215611dac57600080fd5b6000611dba84828501611b8c565b91505092915050565b611dcc81612901565b82525050565b611ddb81612913565b82525050565b6000611dec82612803565b611df68185612819565b9350611e06818560208601612984565b611e0f81612b1f565b840191505092915050565b6000611e258261280e565b611e2f818561282a565b9350611e3f818560208601612984565b611e4881612b1f565b840191505092915050565b6000611e5e8261280e565b611e68818561283b565b9350611e78818560208601612984565b80840191505092915050565b6000611e9160328361282a565b91507f4552433732313a207472616e7366657220746f206e6f6e20455243373231526560008301527f63656976657220696d706c656d656e74657200000000000000000000000000006020830152604082019050919050565b6000611ef7601c8361282a565b91507f4552433732313a20746f6b656e20616c7265616479206d696e746564000000006000830152602082019050919050565b6000611f3760248361282a565b91507f4552433732313a207472616e7366657220746f20746865207a65726f2061646460008301527f72657373000000000000000000000000000000000000000000000000000000006020830152604082019050919050565b6000611f9d60198361282a565b91507f4552433732313a20617070726f766520746f2063616c6c6572000000000000006000830152602082019050919050565b6000611fdd602c8361282a565b91507f4552433732313a206f70657261746f7220717565727920666f72206e6f6e657860008301527f697374656e7420746f6b656e00000000000000000000000000000000000000006020830152604082019050919050565b600061204360388361282a565b91507f4552433732313a20617070726f76652063616c6c6572206973206e6f74206f7760008301527f6e6572206e6f7220617070726f76656420666f7220616c6c00000000000000006020830152604082019050919050565b60006120a9602a8361282a565b91507f4552433732313a2062616c616e636520717565727920666f7220746865207a6560008301527f726f2061646472657373000000000000000000000000000000000000000000006020830152604082019050919050565b600061210f60298361282a565b91507f4552433732313a206f776e657220717565727920666f72206e6f6e657869737460008301527f656e7420746f6b656e00000000000000000000000000000000000000000000006020830152604082019050919050565b6000612175602e8361282a565b91507f45524337323155524953746f726167653a2055524920736574206f66206e6f6e60008301527f6578697374656e7420746f6b656e0000000000000000000000000000000000006020830152604082019050919050565b60006121db60208361282a565b91507f4552433732313a206d696e7420746f20746865207a65726f20616464726573736000830152602082019050919050565b600061221b60318361282a565b91507f45524337323155524953746f726167653a2055524920717565727920666f722060008301527f6e6f6e6578697374656e7420746f6b656e0000000000000000000000000000006020830152604082019050919050565b6000612281602c8361282a565b91507f4552433732313a20617070726f76656420717565727920666f72206e6f6e657860008301527f697374656e7420746f6b656e00000000000000000000000000000000000000006020830152604082019050919050565b60006122e760298361282a565b91507f4552433732313a207472616e73666572206f6620746f6b656e2074686174206960008301527f73206e6f74206f776e00000000000000000000000000000000000000000000006020830152604082019050919050565b600061234d602f8361282a565b91507f4552433732314d657461646174613a2055524920717565727920666f72206e6f60008301527f6e6578697374656e7420746f6b656e00000000000000000000000000000000006020830152604082019050919050565b60006123b360218361282a565b91507f4552433732313a20617070726f76616c20746f2063757272656e74206f776e6560008301527f72000000000000000000000000000000000000000000000000000000000000006020830152604082019050919050565b600061241960318361282a565b91507f4552433732313a207472616e736665722063616c6c6572206973206e6f74206f60008301527f776e6572206e6f7220617070726f7665640000000000000000000000000000006020830152604082019050919050565b61247b8161296b565b82525050565b600061248d8285611e53565b91506124998284611e53565b91508190509392505050565b60006020820190506124ba6000830184611dc3565b92915050565b60006080820190506124d56000830187611dc3565b6124e26020830186611dc3565b6124ef6040830185612472565b81810360608301526125018184611de1565b905095945050505050565b60006020820190506125216000830184611dd2565b92915050565b600060208201905081810360008301526125418184611e1a565b905092915050565b600060608201905081810360008301526125638186611e1a565b90506125726020830185612472565b61257f6040830184611dc3565b949350505050565b600060208201905081810360008301526125a081611e84565b9050919050565b600060208201905081810360008301526125c081611eea565b9050919050565b600060208201905081810360008301526125e081611f2a565b9050919050565b6000602082019050818103600083015261260081611f90565b9050919050565b6000602082019050818103600083015261262081611fd0565b9050919050565b6000602082019050818103600083015261264081612036565b9050919050565b600060208201905081810360008301526126608161209c565b9050919050565b6000602082019050818103600083015261268081612102565b9050919050565b600060208201905081810360008301526126a081612168565b9050919050565b600060208201905081810360008301526126c0816121ce565b9050919050565b600060208201905081810360008301526126e08161220e565b9050919050565b6000602082019050818103600083015261270081612274565b9050919050565b60006020820190508181036000830152612720816122da565b9050919050565b6000602082019050818103600083015261274081612340565b9050919050565b60006020820190508181036000830152612760816123a6565b9050919050565b600060208201905081810360008301526127808161240c565b9050919050565b600060208201905061279c6000830184612472565b92915050565b6000604051905081810181811067ffffffffffffffff821117156127c9576127c8612af0565b5b8060405250919050565b600067ffffffffffffffff8211156127ee576127ed612af0565b5b601f19601f8301169050602081019050919050565b600081519050919050565b600081519050919050565b600082825260208201905092915050565b600082825260208201905092915050565b600081905092915050565b60006128518261296b565b915061285c8361296b565b9250827fffffffffffffffffffffffffffffffffffffffffffffffffffffffffffffffff0382111561289157612890612a63565b5b828201905092915050565b60006128a78261296b565b91506128b28361296b565b9250826128c2576128c1612a92565b5b828204905092915050565b60006128d88261296b565b91506128e38361296b565b9250828210156128f6576128f5612a63565b5b828203905092915050565b600061290c8261294b565b9050919050565b60008115159050919050565b60007fffffffff0000000000000000000000000000000000000000000000000000000082169050919050565b600073ffffffffffffffffffffffffffffffffffffffff82169050919050565b6000819050919050565b82818337600083830152505050565b60005b838110156129a2578082015181840152602081019050612987565b838111156129b1576000848401525b50505050565b600060028204905060018216806129cf57607f821691505b602082108114156129e3576129e2612ac1565b5b50919050565b60006129f48261296b565b91507fffffffffffffffffffffffffffffffffffffffffffffffffffffffffffffffff821415612a2757612a26612a63565b5b600182019050919050565b6000612a3d8261296b565b9150612a488361296b565b925082612a5857612a57612a92565b5b828206905092915050565b7f4e487b7100000000000000000000000000000000000000000000000000000000600052601160045260246000fd5b7f4e487b7100000000000000000000000000000000000000000000000000000000600052601260045260246000fd5b7f4e487b7100000000000000000000000000000000000000000000000000000000600052602260045260246000fd5b7f4e487b7100000000000000000000000000000000000000000000000000000000600052604160045260246000fd5b6000601f19601f8301169050919050565b612b3981612901565b8114612b4457600080fd5b50565b612b5081612913565b8114612b5b57600080fd5b50565b612b678161291f565b8114612b7257600080fd5b50565b612b7e8161296b565b8114612b8957600080fd5b5056fe416e204e465420772f20494420257320686173206265656e206d696e74656420746f202573646174613a6170706c69636174696f6e2f6a736f6e3b6261736536342c65776f6749434167496d3568625755694f6941695258427059307876636d52495957316964584a6e5a5849694c416f6749434167496d526c63324e796158423061573975496a6f67496b4675494535475643426d636d39744948526f5a53426f6157646f62486b6759574e6a624746706257566b49484e78645746795a53426a623278735a574e30615739754969774b4943416749434a706257466e5a53493649434a6b595852684f6d6c745957646c4c334e325a79743462577737596d467a5a5459304c464249546a4a6165554930596c643464574e364d476c685346497759305276646b777a5a444e6b6554557a54586b31646d4e7459335a4e616b463354554d35656d527459326c4a53454a35576c684f62474e75576d785257453533576c644f4d465674526a4268567a67355357356f546d46584e56705556327831535563786246705955576c4a53467077576c686b5132497a5a7a6c4a616b466e54554e42656b35555157644e656c563353576f30546b4e705157644a51304534597a4e534e574a485653744d6255706f597a4a565a325635516d31685633687a54326c434d3246486244426156484e6e576d3035645752444d57315a567a4677596b68724e6b6c49546d786a6257787454336c43625749794e54424d574535775a5731564e6b6c455254426a53476333535567774f45777a546a426c563368735547637753306c445157644a52486835576c644f4d456c495a48426153464a7655464e4a654531455157784a61554a76576c6473626d464955546c4a616b563354554e5661556c48576e4269523363355357314b63316c58546e4a4a615546325547637753306c445157644a52486777576c686f4d456c495a7a6c4a616c5633536c4e4a5a3256554d476c4f5645467353576c43616d4a48526e706a656a427057573147656c705453576461527a6c305956633161474a755558525a62555a36576c643463474a7456546c4a62544677576b6453633170545357646b523159305a454d7861474a74546d39694d306b355357307863467048556e4e6155306b72556c684363466b7765485a6a62564a4a5756637861575259536d356157456b3454444e5362475649555374455557383454444e4f4d6c70364e443069436e303da264697066735822122097b1b7407b898aa9ab7bbbffdd1c0fd06ff5f3079244d065e9389d5d54bd78b664736f6c63430008000033",
    "linkReferences": {},
    "deployedLinkReferences": {}
}